:020000021000EC
:10C000000000022075C301005DC301005FC3010091
:10C0100061C3010063C3010065C3010000000000AB
:10C0200000000000000000000000000067C30100E5
:10C0300069C30100000000006BC301006DC3010073
:10C04000C5EE01006FC3010085F401006FC301005C
:10C050006FC301006FC301007DF30100AD11020049
:10C06000091E0200211E02006FC301006FC3010000
:10C070006FC301006FC301006FC301006FC30100F4
:10C080006FC30100E9D901006FC301006FC3010054
:10C090006FC301006FC30100017602006FC301008E
:10C0A0006FC301006FC301006FC301006FC30100C4
:10C0B0006FC301006FC3010000000000000000001A
:10C0C0006FC301006FC301006FC301006FC30100A4
:10C0D0006FC301006FC301006FC301006FC3010094
:10C0E0006FC301000000000000000000000000001D
:10C0F000000000006FC30100000000006FC30100DA
:10C10000000000000000000000000000000000002F
:10C11000000000000000000000000000000000001F
:10C12000000000000000000000000000000000000F
:10C1300000000000000000000000000000000000FF
:10C1400000000000000000000000000000000000EF
:10C1500000000000000000000000000000000000DF
:10C1600000000000000000000000000000000000CF
:10C1700000000000000000000000000000000000BF
:10C1800000000000000000000000000000000000AF
:10C19000000000000000000000000000000000009F
:10C1A000000000000000000000000000000000008F
:10C1B000000000000000000000000000000000007F
:10C1C000000000000000000000000000000000006F
:10C1D000000000000000000000000000000000005F
:10C1E000000000000000000000000000000000004F
:10C1F000000000000000000000000000000000003F
:10C20000354936480A1A02D0072291438D463449EF
:10C2100034480A1A06D00722914381F30988022282
:10C2200082F3148830483149314A00F044F83148EB
:10C230003149324A00F03FF831483249324A00F081
:10C240003AF832483249334A00F035F83248334937
:10C25000334A00F030F833483349344A00F02BF8C1
:10C2600033483449344A00F026F83448344900222F
:10C2700000F02CF833483449002200F027F8334806
:10C280003349091A082902DB002202604160314A61
:10C2900090471F481F49884205D00268043003B404
:10C2A000904703BCF7E700208646EC4600200021BB
:10C2B000294A9047FEE7884207D0521A05D00378F2
:10C2C00001300B700131013AF9D17047884202D038
:10C2D00002700130FAE770470000022000F80120E8
:10C2E0000000022000000220B0A502000826002065
:10C2F00074260020D0C30100D0C301003C8402009A
:10C30000B0A5020008260020082600203085020083
:10C310003085020030850200308502003085020041
:10C32000308502003085020030850200AFA5020092
:10C330001CA602007426002074260020742600200B
:10C34000FC3A0020FC3A0020FC3A0020FC3A002095
:10C35000FC4200209DC30100671E0200FEE7FEE7CD
:10C36000FEE7FEE7FEE7FEE7FEE7FEE7FEE7FEE7A5
:10C3700000F002B8FFF7FCBF0F484FF007018843F9
:10C3800085460E4880470E48016841F470010160FF
:10C39000BFF34F8FBFF36F8FFFF732BF09480A49D2
:10C3A0000A4A884207D0521A05D0037801300B7030
:10C3B0000131013AF9D170470000022099E50100EE
:10C3C00088ED00E0308502000826002008260020C5
:10C3D00082B04FF0FF33019300BF02B0704700B549
:10C3E00083B001900091019B1B681B680099019824
:10C3F000984700BF03B05DF804FB00B583B001901F
:10C40000019B1B685B680198984700BF03B05DF80B
:10C4100004FB00B583B00190019B1B689B680198E9
:10C42000984700BF03B05DF804FB82B00190019B08
:10C43000DB6801225A7100BF02B0704782B00190E0
:10C44000019BDB685B79184602B0704700B585B088
:10C45000019000910C4B00221A700C4801F038FD3D
:10C460000390039B002B01D0039B08E0084801F0D8
:10C4700045FF084A084BD31ADB08029300231846ED
:10C4800005B05DF804FB00BFDC27002094840200A7
:10C490003085020030850200A8840200024A034B66
:10C4A000D31ADB081846704730850200A8840200C2
:10C4B00084B00190009100238DF80F30019B1B7810
:10C4C00003F00403DBB2002B24D0019B1B78C3F3E1
:10C4D0000103DBB2012B02D0022B0CD017E0009B32
:10C4E0001B68019A1288C2F38312D2B213449A1CB9
:10C4F000009B1A600BE0009B1B68019A5288C2F3F4
:10C50000891292B213449A1C009B1A6000BF012347
:10C510008DF80F309DF80F30184604B070470000BA
:10C5200000B58BB00023ADF826303E4801F0A9FBE2
:10C530003D4801F0A6FB3D4B9B6804933C4B1B68B8
:10C540000693049A069B134002339B00374A134418
:10C550000433089304AB19460898FFF7A9FF034674
:10C56000002B09D0049A069B134002339B002F4AEC
:10C57000134404330893EDE700BF0023079311E051
:10C58000049B5A1C0492069A1340079A920001A930
:10C590000A44264902339B000B445B681360079BE7
:10C5A00001330793079B012BEAD99DF80430C3F3AD
:10C5B0000103DBB2012B10D0022B1CD1BDF80A30D5
:10C5C000ADF82630BDF80630C3F389139BB20333B0
:10C5D0009A08049B1344049313E0BDF80A30ADF8A5
:10C5E0002630BDF80430C3F38313DBB21A46049B34
:10C5F0001344049305E00F494FF4C27006F030FB7A
:10C6000000BF094801F049FB0590059B002B02D0B3
:10C61000049B064A9360BDF8263018460BB05DF8BF
:10C6200004FB00BFF42B0020F02B0020DC270020AF
:10C63000082600204085020000B585B0002107488B
:10C6400001F090FA0390039B0293029B83F3100383
:10C650000193019B184605B05DF804FBF82B002000
:10C6600000B589B00390029101920093039B1B0CCB
:10C670000793FFF7E1FF0690FFF710FF0246079BC5
:10C68000934204D3214940F2A91006F0E9FA069B2F
:10C690001904009B5A1C0A9B1340079A0A431C4921
:10C6A00002339B000B445A60009A0A9B13400233EA
:10C6B0009B00174A134404330593039B03F00703BD
:10C6C000D9B2059A137861F3C5031370019B03F087
:10C6D0000F03D9B2059A138861F389131380029B63
:10C6E000C3F31501059A136861F39F231360059A3C
:10C6F0001378012161F301031370059A13786FF326
:10C700008203137000BF09B05DF804FB408502008E
:10C71000DC27002000B58DB00390029113468DF800
:10C720000730039B02330A9301238DF8273000233F
:10C730008DF81B300DF11B03184601F0C9F8404B72
:10C740005A68029B1A603F4B1A683D4B99683C4BF4
:10C750005B68CB1A134401330B9314E001213A4870
:10C7600001F05FFAFFF7DCFE07900799364801F009
:10C7700058FA344B1A68324B9968314B5B68CB1AC4
:10C78000134401330B930A9A0B9B9A42E6D89DF807
:10C790002730002B48D0002305939DF80730002B4D
:10C7A00017D09DF81430012262F301038DF8143084
:10C7B0009DF8143043F004038DF81430039B03F00C
:10C7C0000F03DAB2BDF8143062F38913ADF81430F8
:10C7D00016E09DF81430022262F301038DF8143044
:10C7E0009DF8143043F004038DF81430039BC3F319
:10C7F00009039AB2BDF8163062F38F13ADF8163004
:10C800000F4B5A680F4B1B68134002339B000C4AB6
:10C81000134404330893059A089B1A60084B5A681E
:10C820000A9B1344064A53609DF81B30184601F0DA
:10C8300065F89DF8273018460DB05DF804FB00BF81
:10C84000DC27002008260020F82B002000B58BB044
:10C8500005900491039202931F4B1B68079306AB4C
:10C86000012219460298FFF755FF0346002B24D0FA
:10C87000069B023309930023089311E0089B9B0059
:10C88000039A1A44099B591C099107990B40126895
:10C89000124902339B000B445A60089B01330893F2
:10C8A000089A029B9A42E9D3069A079B0093134683
:10C8B000029A04990598FFF7D3FE084B1B78002BCA
:10C8C00005D000BF00F07EF80346002BFAD100BF70
:10C8D0000BB05DF804FB00BF08260020DC27002019
:10C8E00000B583B0019000910023002200990198C7
:10C8F000FFF7ACFF00BF03B05DF804FB00B587B0E5
:10C90000039002910192019B059305AA01230299CC
:10C910000398FFF79BFF00BF07B05DF804FB00B56D
:10C9200087B00390029101920093019B0493009BB6
:10C93000059304AA022302990398FFF787FF00BF1B
:10C9400007B05DF804FB00B589B003900291019235
:10C950000093019B0593009B06930A9B079305AAEE
:10C96000032302990398FFF771FF00BF09B05DF838
:10C9700004FB00B58BB00390029101920093019BE0
:10C980000593009B06930C9B07930D9B08930E9BAE
:10C99000099305AA052302990398FFF757FF00BFE3
:10C9A0000BB05DF804FB0000054B9A68044B5B6814
:10C9B0009A420CBF01230023DBB21846704700BF28
:10C9C000DC27002000B599B0FFF7EEFF0346002BEF
:10C9D00001D00023C0E19B4B0022C3F81824BFF311
:10C9E0004F8F00BF974B9B680493974B1B68109326
:10C9F000049A109B134002339B00924A1344043361
:10CA00001193002317930023169300230F9304AB75
:10CA100019461198FFF74CFD0346002B19D0894B9E
:10CA2000D3F81834002B14D1864B5A68049B9A42D1
:10CA300005D8844B5B68834A936000238CE1049A99
:10CA4000109B134002339B007E4A1344043311931E
:10CA5000DDE70023159311E0049B5A1C0492109A01
:10CA60001340159A920001A90A44764902339B00AB
:10CA70000B445B681360159B01331593159B012BC9
:10CA8000EAD99DF8043003F00303DBB2022B40F037
:10CA90009C80BDF80630C3F389139BB20D93BDF89B
:10CAA0000630C3F389139BB2502B28BF50239BB28F
:10CAB0000C930C9BC3F309039AB2BDF8063062F3E2
:10CAC0008F13ADF806300C9B08330B939DF80430A0
:10CAD000C3F3C203DBB20F930B995C4801F003FA76
:10CAE0001790179B002B00F0D380179801F08CFA59
:10CAF00001A9169B0822179801F042FB169B0833E8
:10CB00001693049BDA43109B134001339B000A9356
:10CB10000C9A0A9B9A4242D90A9B002B08D0049A8D
:10CB2000109B134002339B00464A1344043300E039
:10CB3000474B08930A9B002B02D00A9BDBB201E013
:10CB40000C9BDBB28DF81F300A9B002B01D0404BB1
:10CB500000E0002306930A9B002B06D00C9BDAB260
:10CB60000A9BDBB2D31ADBB200E000238DF817304A
:10CB70009DF81F20169B0899179801F001FB9DF85E
:10CB80001F30169A13441693069B002B16D09DF85F
:10CB90001720169B0699179801F0F2FA0EE0049AF6
:10CBA000109B134002339B00264A1344043309931D
:10CBB000169B0C9A0999179801F0E2FA0D9B033322
:10CBC0009A08049B1344049362E09DF8043003F038
:10CBD0000303DBB2012B5BD1BDF80430C3F3831335
:10CBE000DBB2062B28BF0623DAB2BDF8043062F3AD
:10CBF0008913ADF80430BDF80430C3F38313DBB2FE
:10CC000002330E939DF80430C3F3C203DBB20F93DB
:10CC10000E9B9B0019460D4801F065F91790179B74
:10CC2000002B35D0179801F0EFF901A9169B0822C7
:10CC3000179801F0A5FA169B083316930023159355
:10CC40001DE000BFDC27002008260020948402009D
:10CC5000E8270020049B5A1C0492109A13400233C8
:10CC60009B003F4A1344191D169B0422179801F09C
:10CC700087FA169B04331693159B01331593BDF861
:10CC80000430C3F38313DBB21A46159B9342E1D3FE
:10CC9000179B002B40D0324BD3F810341493304BF9
:10CCA000D3F81834002B1BD0179801F0BCF94DE0D5
:10CCB00000238DF84F301498FFF7C0FB0346002B7C
:10CCC00002D001238DF84F309DF84F30002B03D058
:10CCD00017991498FFF783FB149BDB681B68149368
:10CCE000149B002BE4D1179801F09DF900238DF8D7
:10CCF00003300DF10303184600F0EAFD184BD3F89A
:10CD00001834002B02D1049B154A93609DF8033020
:10CD1000184600F0F3FD19E0114BD3F810341293CC
:10CD200006E01298FFF775FB129BDB681B681293F5
:10CD3000129B002BF5D10B4A0B4BD31ADB081B04BB
:10CD400043F0020309491846FFF7CAFDFFF72CFE1E
:10CD5000034683F00103DBB2184619B05DF804FB0B
:10CD6000DC270020E0840200A8840200C0850200C5
:10CD700000B583B00C4BD3F8103401930A4B012259
:10CD80001A7009E00198FFF750FB0198FFF735FB97
:10CD9000019BDB681B680193019B002BF2D100BF54
:10CDA00000BF03B05DF804FBDC27002000B583B0B2
:10CDB00002900091019244F2010071466A4600F02F
:10CDC00017F803B000BD00BFBFF34F8F00BF064B85
:10CDD000DB6803F4E0620449044B1343CB60BFF308
:10CDE0004F8F00BF00BFFDE700ED00E00400FA0533
:10CDF00030B58BB007900691059272B600BFFFF771
:10CE0000B7FF00BFFFF7DEFD0346002BFAD1079BFB
:10CE100044F2020293422FD0079B44F20202934253
:10CE200069D8079B44F20102934237D0079B44F232
:10CE3000010293425FD8079B012B05D0079B41F26B
:10CE4000010293420CD056E03B4A3C4BD31ADB081C
:10CE50001B0443F001033A491846FFF741FD57E030
:10CE6000354A364BD31ADB081B0443F0010335491E
:10CE70001846FFF735FD4BE0059B09932E4A2F4BD3
:10CE8000D31ADB081B0443F00100099B5B681A46B8
:10CE9000099B1B682C49FFF742FD39E0059B08936D
:10CEA000254A264BD31ADB081B0443F00104089BD8
:10CEB0009D68089B9B68184601F09AFA034618463D
:10CEC000089B5B681946089B1B68069A02920193AF
:10CED000009103462A461D492046FFF74AFD164A9F
:10CEE000164BD31ADB081B0443F0010318491846FC
:10CEF000FFF7F6FC0CE0104A104BD31ADB081B04BA
:10CF000043F00103069A13491846FFF7F7FC00BFE8
:10CF1000114B1B6803F00103002B00D000BE064A32
:10CF2000064BD31ADB081B0443F002030B491846D7
:10CF3000FFF7D6FCFFF748FFE0840200A884020058
:10CF4000D4850200F48502001886020034860200AF
:10CF50005C86020070860200F0ED00E08886020028
:10CF600084B00190019B9B680393019BDA68039B4B
:10CF7000D31A184604B0704782B001900B468DF862
:10CF80000330019B1A68019BDB68019989880B407B
:10CF900013449DF803201A70019BDB685A1C019B07
:10CFA000DA6000BF02B0704784B003900B46019274
:10CFB000ADF80A30039B1A68039B9968BDF80A30E4
:10CFC0000B44039989880B4013441A78019B1A700B
:10CFD00000BF04B0704700B583B001900091009A83
:10CFE00000210198FFF7E0FF019B9B685A1C019B01
:10CFF0009A6000BF03B05DF804FB84B00390029117
:10D000001346ADF80630029B002B01D10E231DE024
:10D01000BDF80630002B07D0BDF806305A1EBDF80B
:10D0200006301340002B01D009230FE0039B029A26
:10D030001A60BDF80630013B9AB2039B9A80039BAD
:10D0400000229A60039B0022DA600023184604B095
:10D05000704700B583B001900B468DF803300198FE
:10D06000FFF77EFF0246019B9B889A4207D89DF8F6
:10D07000033019460198FFF77FFF002300E00423E7
:10D08000184603B05DF804FB00B583B00190009131
:10D090000198FFF765FF0346002B05D00099019822
:10D0A000FFF799FF002300E00523184603B05DF861
:10D0B00004FB00B589B0039002910192039B002B01
:10D0C00001D10E2331E0019B002B01D10E232CE076
:10D0D0000398FFF745FF0690019B1B68059300230B
:10D0E0000793069A059B934228BF13460493019B1E
:10D0F000069A1A60069B002B01D1052315E0029BBE
:10D10000002B0AD1002310E0079B5A1C0792029AB9
:10D11000134419460398FFF75EFF079A049B9A424F
:10D12000F2D3019B049A1A600023184609B05DF8F7
:10D1300004FB00B585B001900198FFF711FF039043
:10D14000039B184605B05DF804FB10B588B003904A
:10D1500002910192039B002B01D10E2338E0019B29
:10D16000002B01D10E2333E0039B9B881C460398C0
:10D17000FFF7F6FE0346E31A01330693019B1B6893
:10D18000059300230793069A059B934228BF1346F5
:10D190000493019B069A1A60069B002B01D104237D
:10D1A00016E0029B002B0BD1002311E0079B5A1CB9
:10D1B0000792029A13441B7819460398FFF7DCFE86
:10D1C000079A049B9A42F1D3019B049A1A600023A8
:10D1D000184608B010BD0000F0B583B0124800F04A
:10D1E000E9FB034618464FF00001104BD3E900233A
:10D1F000861841EB0307CDE900670D4BD3E9002307
:10D20000DDE90001994208BF904207D2DDE9002321
:10D2100012F1807443F10005CDE90045DDE90023FA
:10D220001046194603B0F0BD0C260020002C00204B
:10D23000082C002008B5024800F0C9FB00BF08BD5B
:10D240000C26002000B585B0034600918DF807300C
:10D25000114A02AB1946104600F00EFC0390039BE6
:10D26000002B13D0039B9DF807201A70039B009A94
:10D270005A60094A02AB1946104600F016FC0346F4
:10D28000002B01D0FFF7D6FF002300E0042318464F
:10D2900005B05DF804FB00BF102C002000B587B07E
:10D2A00003900B4601928DF80B30039B002B04D1A9
:10D2B000134940F22E2005F0D3FC019B002B04D132
:10D2C0000F4940F22F2005F0CBFC019B002B01D130
:10D2D000072310E0039B1B680593059B019A5A6185
:10D2E0009DF80B30012B0CBF01230023DBB21A4643
:10D2F000059B1A610023184607B05DF804FB00BFC8
:10D30000A486020030B587B0039002910192039B7E
:10D31000002B04D1154940F23E2005F0A1FC039BEF
:10D320000593059B1B7FDBB2002B01D000231AE085
:10D33000059B019A9A61FFF74FFF029B1A464FF037
:10D340000003841841EB0305059BC3E90245059BD7
:10D350001B69002B02D0059B029A1A6105990020D7
:10D36000FFF770FF0346184607B030BDA4860200E1
:10D3700000B585B00190019B002B04D109494FF401
:10D38000157005F06DFC019B0393039B00221A7737
:10D3900003990120FFF756FF0346184605B05DF8D4
:10D3A00004FB00BFA486020000B587B00390029181
:10D3B00013468DF8073000230593039B1B781A460C
:10D3C000114B9B5C002B09D0039B04339DF8072075
:10D3D0000299184603F07EFA05900FE0039B1B7834
:10D3E0001A46094B9B5C002B08D1039B0C339DF81C
:10D3F00007200299184602F001FC0590059B18468B
:10D4000007B05DF804FB00BF982C002000B585B084
:10D41000019000238DF80F30019B1B781A46114BA9
:10D420009B5C002B08D0019B0433184603F012FBD1
:10D4300003468DF80F300EE0019B1B781A46094B0E
:10D440009B5C002B07D1019B0C33184602F05EFC5D
:10D4500003468DF80F309DF80F30184605B05DF883
:10D4600004FB00BF982C002000B587B00390029108
:10D4700013468DF8073000230593039B1B781A464B
:10D48000114B9B5C002B09D0039B04339DF80720B4
:10D490000299184603F0F6FA05900FE0039B1B78FB
:10D4A0001A46094B9B5C002B08D1039B0C339DF85B
:10D4B00007200299184602F081FC0590059B18464A
:10D4C00007B05DF804FB00BF982C002084B00190E9
:10D4D000019B9B680393019BDA68039BD31A184650
:10D4E00004B0704700B587B001900091019B1B7894
:10D4F000022B45D0022B6ADC002B52D0012B66D1C7
:10D50000019B1B7A002B05D1012233493348FFF7D9
:10D51000ABFF5DE0019B5B681B7819463048FFF765
:10D5200098FD0590059B002B0AD001238DF80C3047
:10D53000059B04932B4B1B6803AA104698470DE0EC
:10D540002748FFF7C3FF0346002B07D000238DF8C1
:10D550000C30244B1B6803AA104698472048FFF75D
:10D56000B5FF03461E4A9288934205D801221A4904
:10D570001A48FFF779FF2BE01B4B01221A7027E0B6
:10D5800002238DF80C30019BDB68049301221249C1
:10D590001248FFF769FF134B1B6803AA1046984710
:10D5A00016E012491248FFF76FFD0346002B05D124
:10D5B00001220E490948FFF7F7FE09E003238DF821
:10D5C0000C30084B1B6803AA1046984700E000BFC8
:10D5D00000BF07B05DF804FB282C002014260020B3
:10D5E0002C2C0020202C0020292C0020242C002072
:10D5F0003C2C002030B591B00390029101928DF83F
:10D6000003303C4A019B1360029B002B01D107238E
:10D610006DE0029B1968029B5B689BB21A46364814
:10D62000FFF7EBFC0F900F9B0E930E9B002B01D08E
:10D630000E9B5CE0029B9968029BDB689BB21A46DA
:10D640002E48FFF7DAFC0F900F9B0D930D9B002BDC
:10D6500001D00D9B4BE02A4B04AC1D460FCD0FC4EF
:10D6600095E80F0084E80F00039B5B690A93039B16
:10D670001B7C002B14BF01230023DBB28DF8243068
:10D680009DF803308DF82C30039B5B7C002B01D080
:10D690000E2300E000238DF82530039BDB68069302
:10D6A000039B9B680793039B1B680593039B5B6825
:10D6B000049304AB134A1946134801F023FA0F9060
:10D6C0000F9B0C930C9B002B01D00C9B0FE00F4B7E
:10D6D00000221A70039B1B68B3F1FF3F06D00122A2
:10D6E0000B490948FFF7C0FE034600E00023184637
:10D6F00011B030BD202C00202C2C00203C2C002010
:10D7000020870200E5D4010014260020292C0020E7
:10D71000282C002000B587B00190019B002B03D17D
:10D720001449CA2005F09CFA134B1B788DF817306A
:10D7300001991248FFF7A8FC04909DF81730002BC0
:10D7400012D00D4B00221A7001220D490D48FFF72F
:10D750008BFE0390039B0293029B002B04D0054A8F
:10D76000D6210298FFF722FB049B184607B05DF80C
:10D7700004FB00BF40870200292C00202C2C002035
:10D78000282C00201426002000B585B003468DF813
:10D7900007309DF8073019461048FFF75AFC0390F0
:10D7A000039B002B15D10E48FFF730FE034683F094
:10D7B0000103DBB2002B0CD00A490848FFF764FCD8
:10D7C0000346002B05D1012206490548FFF7ECFD71
:10D7D0000390039B184605B05DF804FB3C2C002029
:10D7E00014260020242C002082B0EFF31083009335
:10D7F000009B019372B600BF019B184602B07047B0
:10D8000062B600BF00BF704700B585B00190FFF75A
:10D81000EBFF0390164B9B68002B1BD1144B01228E
:10D820009A60144BD3F88020134B1340104A1360B6
:10D83000104B114AC3F880200E4BD3F884300C4AA9
:10D8400053600C4B4FF0FF32C3F88420019B002241
:10D850001A7002E0019B01221A70039B002B01D178
:10D86000FFF7CEFF0023184605B05DF804FB00BFAC
:10D870004C2C002000E100E0FC06FFBD00B585B0A7
:10D8800003468DF80730104B9B68002B16D09DF88F
:10D890000730002B12D1FFF7A7FF03900B4A0A4B6A
:10D8A0001B681360094A084B5B685360064B0022F3
:10D8B0009A60039B002B01D1FFF7A2FF00231846BB
:10D8C00005B05DF804FB00BF4C2C002000E100E037
:10D8D00000B583B0019000F02BF80346012B03D074
:10D8E0000549432005F0BCF90198FFF78DFF00BF03
:10D8F00003B05DF804FB00BFBC87020000B583B035
:10D9000003468DF8073000F013F80346012B03D0CF
:10D910000649512005F0A4F99DF807301846FFF795
:10D92000ADFF00BF03B05DF804FB00BFBC87020081
:10D9300084B0EFF305830193019BC3F308030393C2
:10D94000039B002B0DD1EFF314830093009B0293F4
:10D95000029B03F00103002B0CBF01230023DBB269
:10D9600000E00123184604B07047000082B003466F
:10D970008DF807309DF90730002B0DDB9DF807303F
:10D9800003F01F0206499DF907305B09012000FAE8
:10D9900002F2403341F8232000BF02B0704700BFBD
:10D9A00000E100E082B00190019BD3F804351846F5
:10D9B00002B0704700B583B00190019B1B68184608
:10D9C000FFF7F0FF0346184603B05DF804FB00B50F
:10D9D00083B00190019B93F904301846FFF7C6FF0E
:10D9E00000BF03B05DF804FB08B5044B1B68044A94
:10D9F00012681046984700BF08BD00BF582C002091
:10DA00005C2C002086B001900091019B53E8011F1F
:10DA10008AB2D88902449889824228BF121A18898A
:10DA2000824202BFBFF32F8F002307E0C2EA010248
:10DA300043E801200028E9D14FF001038DF80F30B1
:10DA4000059002910492029A009B1A609DF80F3093
:10DA5000DBB2184606B0704784B00190019951E8D6
:10DA6000013FC3EA034341E80132002AF7D10392A0
:10DA7000029300BF04B0704700B585B001900091DB
:10DA8000009B19460198FFF7BDFF0346002B07D006
:10DA9000019B1B68009A128813440393039B00E0C8
:10DAA0000023184605B05DF804FB00B583B0019073
:10DAB0000091009B1A88009B5B889A4204D10198D0
:10DAC000FFF7CAFF012300E00023184603B05DF80A
:10DAD00004FB00B585B001900091009B5B099B00A1
:10DAE000019A1A44009B03F01F03012101FA03F37A
:10DAF0001946104600F04DF8039000BF05B05DF8E0
:10DB000004FB00B585B001900091009B5B099B0070
:10DB1000019A1A44009B03F01F03012101FA03F349
:10DB2000DB431946104600F064F8039000BF05B0CF
:10DB30005DF804FB82B001900091009B5B099B00A3
:10DB4000019A13441A68009B03F01F0322FA03F39F
:10DB500003F00103002B14BF01230023DBB218469E
:10DB600002B0704710B487B001900091019B009AF9
:10DB700053E8004F104643E8000191F0000FF7D141
:10DB8000059404900391059B184607B05DF8044B7B
:10DB9000704710B487B001900091019B009A53E840
:10DBA000004F44EA020043E8000191F0000FF6D173
:10DBB000059404900391049B184607B05DF8044B4C
:10DBC000704710B487B001900091019B009A53E810
:10DBD000004F04EA020043E8000191F0000FF6D183
:10DBE000059404900391059B184607B05DF8044B1B
:10DBF000704710B487B001900091019B009A53E8E0
:10DC0000004F04EA020043E8000191F0000FF6D152
:10DC1000059404900391049B184607B05DF8044BEB
:10DC2000704710B487B001900091019B009A53E8AF
:10DC3000004F04EB020043E8000191F0000FF6D121
:10DC4000059404900391049B184607B05DF8044BBB
:10DC5000704710B487B001900091019B009A53E87F
:10DC6000004FA4EB020043E8000191F0000FF6D151
:10DC7000059404900391049B184607B05DF8044B8B
:10DC8000704700B583B0019001210198FFF781FF33
:10DC90000346184603B05DF804FB00B583B001905D
:10DCA00000210198FFF78DFF0346184603B05DF889
:10DCB00004FB000000B583B001900B468DF80330E3
:10DCC000019B002B03D10849E82004F0C9FF019B08
:10DCD000DA689DF803300199098A01FB03F31344C4
:10DCE000184603B05DF804FB3C88020000B583B021
:10DCF00001900091019B002B03D10849F52004F00D
:10DD0000AFFF009B019AD2689B1A019A128AB3FB5B
:10DD1000F2F3DBB2184603B05DF804FB3C88020066
:10DD200000B585B00190019B002B01D10E234CE082
:10DD3000019B1B68002B03D12649FF2004F090FFB4
:10DD4000019B5B68002B04D122494FF4807004F0E2
:10DD500087FF019B9B68002B04D11E4940F20110F4
:10DD600004F07EFF019BDB68002B04D119494FF4BE
:10DD7000817004F075FF019B1B8A002B04D11549AB
:10DD800040F2031004F06CFF019B9A68019B5B68F2
:10DD9000D31A8DF80F30019B1B68019A52681A60E4
:10DDA00007E0019B1A681368591C11609DF80F2049
:10DDB0001A709DF80F305A1E8DF80F20002BF0D1ED
:10DDC000019B1B6800221A710023184605B05DF8FC
:10DDD00004FB00BF3C88020000B585B00190019BA8
:10DDE000002B04D11F494FF4927004F039FF002337
:10DDF000039300238DF80A300DF10A031846FFF74C
:10DE000067FD019B1B681A68019B5B689A421FD9DA
:10DE1000019B1B681A68013A1A601B681B78194637
:10DE20000198FFF747FF0390019B9A68019B1B68CD
:10DE30001B68D31A8DF80B30019B1B681B799DF86A
:10DE40000B209A4204D9019B1B689DF80B201A7184
:10DE50009DF80A301846FFF751FD039B184605B0A0
:10DE60005DF804FB3C88020010B584B0019000917D
:10DE7000019B002B04D1154940F2471004F0F0FE3D
:10DE8000009B002B04D111494FF4A47004F0E8FE6C
:10DE9000009B039300238DF80B300DF10B03184604
:10DEA000FFF716FD019B1B681C68621C1A60039932
:10DEB0000198FFF71BFF034623709DF80B301846AF
:10DEC000FFF71CFD00BF04B010BD00BF3C8802007E
:10DED00000B583B001900198FFF722FF0346184672
:10DEE00003B05DF804FB00B58BB001900091019B7D
:10DEF0001B8A043B0793009A079B1344DA1C079B79
:10DF0000B2FBF3F38DF81B300198FFF765FF059026
:10DF1000059B002B01D1002338E0059B00221A71DC
:10DF2000059B01225A71079B9AB2059BDA80059BDB
:10DF300009939DF81B30013B0493099B019A1A60D9
:10DF4000002308931DE00198FFF746FF0390039B11
:10DF5000002B0ED0059B5B790133DAB2059B5A7119
:10DF6000099B039A1A60039B019A1A60039B099309
:10DF700004E0059800F00EF8002307E0089B013349
:10DF80000893089A049B9A42DDD3059B18460BB070
:10DF90005DF804FB00B58BB00190019B0793079BD4
:10DFA0005B798DF81B30019B08939DF81B30013B7A
:10DFB00005930023099305E0089B1B680893099BC0
:10DFC00001330993099A059B9A42F5D3089B1B6874
:10DFD0000493019B0893002309930BE0089B1B68A3
:10DFE000039308990498FFF73FFF039B0893099B4D
:10DFF000013309939DF81B30099A9A42EED300BF72
:10E0000000BF0BB05DF804FB00B585B00190019B2B
:10E010000393039B043301211846FFF702FE00BF60
:10E0200005B05DF804FB00B587B00190019B059336
:10E03000059B043301211846FFF70BFE03460393AB
:10E0400003AB0493049B1B78002B02D10198FFF7CC
:10E05000A1FF00BF07B05DF804FB000000B591B060
:10E060000390029101920093039B002B03D143493B
:10E07000B62004F0F5FD039B0993039B0F93099BC6
:10E08000DB881A46099B5B7903FB02F3043B089388
:10E09000009A089B9A4203D33849C42004F0E0FD5B
:10E0A000099BDB880793009B1A1D079BB2FBF3F3C8
:10E0B0000E93009B0433079AB3FBF2F2079901FB1E
:10E0C00002F29B1A0D93019B1A68009B1344089A55
:10E0D0009A4203D2089A009BD31A01E0019B1B6865
:10E0E0000C93019B0C9A1A6005E00F9B1B680F9321
:10E0F0000E9B013B0E930E9B002BF6D100230B933E
:10E10000079A0D9BD31A0A930A9A0C9B934228BF35
:10E1100013460A932AE0029A0B9B134406930F9A24
:10E120000D9B1344043305939DF84830002B05D014
:10E130000A9A0599069809F0B7FD04E00A9A06992B
:10E14000059809F0B1FD00230D930F9B1B680F93F9
:10E150000C9A0A9BD31A0C930B9A0A9B13440B93A9
:10E16000079A0C9B934228BF13460A930C9B002BE3
:10E17000D1D100BF00BF11B05DF804FBB888020028
:10E1800000B589B00590049103920293039B079315
:10E1900007AA00230093029B04990598FFF75EFFEE
:10E1A000079B039A9A4203D00349F62004F058FDD6
:10E1B00000BF09B05DF804FBB888020082B00346D6
:10E1C0008DF807309DF90730002B0DDB9DF80730E7
:10E1D00003F01F0206499DF907305B09012000FA90
:10E1E00002F2603341F8232000BF02B0704700BF45
:10E1F00000E100E000B583B00190019B002B03D14A
:10E200000649722004F02CFD019B00221A60BFF326
:10E210005F8F00BF00BF03B05DF804FB8889020078
:10E2200041DF704700BF184600B585B000238DF868
:10E2300003300DF103031846FFF74AFBF1EE103AE5
:10E240000193019B0393039B23F09F030293029B83
:10E25000E1EE103A00BFBFF35F8F00BF2620FFF74B
:10E26000ADFF9DF803301846FFF748FB039B03F012
:10E270000703002B03D004497D2004F0F1FC00BF0C
:10E2800005B05DF804FB00BFCC89020008B5064B61
:10E2900000221A700548FFF7ADFF0549054800F058
:10E2A0004BF80023184608BD682C0020642C002081
:10E2B0004C8A02006C2C002000B583B0FFF7B4FF3D
:10E2C00009F070F90346002B0ED0FFF7A9FF01906B
:10E2D000019B002B0BD0019B022B08D006494FF469
:10E2E000B07004F0BDFC02E020BF40BF20BF00BF03
:10E2F00003B05DF804FB00BFCC89020082B001903E
:10E30000019B9B6800229A60019B9B6800221A6116
:10E31000019B9B6800225A61019B9B680022DA6086
:10E32000019B9B6800225A60019B9B6800221A6037
:10E3300000BF02B07047000000B583B001900091AB
:10E34000019B002B03D11049502004F089FC009B55
:10E35000002B03D10C49512004F082FC019B009A50
:10E360001A60019B1B681A68019B5A60019B5A68DE
:10E37000019B1B685B689A4202D1019B00225A6094
:10E3800000BF03B05DF804FB588A020000B583B0FB
:10E390000190019B002B03D11449632004F060FC21
:10E3A000019B1B68002B03D11049642004F058FC2A
:10E3B000019B5B68002B14D0019B5B681A46019B94
:10E3C0001B689B6813441A46019B5A60019B5A685C
:10E3D000019B1B685B689A4204D1019B00225A6032
:10E3E00000E000BF03B05DF804FB00BF588A0200E4
:10E3F00000B585B00190019800F00EF80390039BE2
:10E40000002B01D0039B00E0024B184605B05DF8DD
:10E4100004FB00BF788B020086B00190164B059379
:10E42000164B04931FE0049A059BD31ADB10DA0FF6
:10E4300013445B10DB00059A13440393039B1B6892
:10E440000293029A019B9A4202D9039B04930AE029
:10E45000029A019B9A4203D2039B0833059302E080
:10E46000039B5B6804E0059A049B9A42DBD300237C
:10E47000184606B0704700BF788F0200A0900200D7
:10E4800000B583B001900091019BDBB21846FFF705
:10E490007BF9019B184603B05DF804FBBFF34F8F77
:10E4A00000BF064BDB6803F4E0620449044B1343EE
:10E4B000CB60BFF34F8F00BF00BFFDE700ED00E072
:10E4C0000400FA0582B00D4B1B6801930C4B1B68CE
:10E4D0000093019B0D2B0CD1009B002B03D0009BC4
:10E4E000012B02D003E0012304E0012302E0012319
:10E4F00000E00023184602B0704700BF3001001052
:10E500003401001082B00D4B1B6801930C4B1B684B
:10E510000093019B0D2B0CD1009B002B03D0009B83
:10E52000012B02D003E0012304E0012302E00123D8
:10E5300000E00023184602B0704700BF3001001011
:10E540003401001082B00D4B1B6801930C4B1B680B
:10E550000093019B0D2B0CD1009B002B03D0009B43
:10E56000012B02D003E0012304E0012302E0012398
:10E5700000E00023184602B0704700BF30010010D1
:10E5800034010010024B034A1A6000BF704700BFFD
:10E59000282600200090D00308B5FFF793FF03461C
:10E5A000002B0ED04FF080430022C3F80C214FF017
:10E5B00080430022C3F810214FF080430022C3F8AB
:10E5C0003825FFF79FFF0346002B76D04FF080538E
:10E5D000684AD3F80434C2F820354FF08053654AB6
:10E5E000D3F80834C2F824354FF08053614AD3F889
:10E5F0000C34C2F828354FF080535E4AD3F81034FB
:10E60000C2F82C354FF080535A4AD3F81434C2F86C
:10E6100030354FF08053574AD3F81834C2F83435A8
:10E620004FF08053534AD3F81C34C2F840354FF0B2
:10E630008053504AD3F82034C2F844354FF0805309
:10E640004C4AD3F82434C2F848354FF08053494A35
:10E65000D3F82834C2F84C354FF08053454AD3F8EC
:10E660002C34C2F850354FF08053424AD3F830343E
:10E67000C2F854354FF080533E4AD3F83434C2F8D0
:10E6800060354FF080533B4AD3F83834C2F86435D4
:10E690004FF08053374AD3F83C34C2F868354FF016
:10E6A0008053344AD3F84034C2F86C354FF080536D
:10E6B000304AD3F84434C2F87035FFF743FF0346BD
:10E6C000002B0DD04FF08043D3F8003403F001034A
:10E6D000002B05D04FF080436FF00102C3F80024F7
:10E6E000254BD3F88830244A43F47003C2F88830AD
:10E6F000BFF34F8F00BFBFF36F8F00BF4FF01023EA
:10E70000D3F80032002B05DB4FF01023D3F804328E
:10E71000002B2BDA194B0122C3F8042500BF174B3D
:10E72000D3F80034002BFAD04FF010231222C3F894
:10E73000002200BF114BD3F80034002BFAD04FF069
:10E7400010231222C3F8042200BF0C4BD3F800346C
:10E75000002BFAD0094B0022C3F8042500BF074B59
:10E76000D3F80034002BFAD0FFF798FEFFF70AFF2A
:10E7700000BF08BD00C0004000ED00E000E0014027
:10E7800082B003468DF807309DF90730002B13DB6C
:10E790009DF8073003F01F0209499DF907305B0916
:10E7A000012000FA02F2203341F82320BFF34F8FFB
:10E7B00000BFBFF36F8F00BF00BF02B0704700BF44
:10E7C00000E100E0044BD3F80034002B14BF012318
:10E7D0000023DBB2184670470000014008B508F07E
:10E7E000E1FE034683F00103DBB2002B03D10949AC
:10E7F0007B2004F035FAFFF7E5FF034683F00103C1
:10E80000DBB2002B04D000F03DFB034B00229A70DA
:10E8100000BF08BDA8900200742C002000B583B092
:10E8200000230193184B1B78002B02D08523019302
:10E830001CE0154B00229A60134B00225A60124BC9
:10E8400000221A61104B0022DA60104800F0E4FA4E
:10E85000019008F0A7FE034683F00103DBB2002B12
:10E8600001D000F0FBFA084B01221A70FFF7AAFF53
:10E870000346002B02D0044B01229A70019B1846DC
:10E8800003B05DF804FB00BF742C002065E90100B3
:10E8900084B00190019B1B680393039B002B03D062
:10E8A000039B1A68019B1A60039B184604B07047CB
:10E8B00000B583B0164B1B78002B04D1154940F2EC
:10E8C000171004F0CDF9124BDB68002B04D111496D
:10E8D0004FF48C7004F0C4F900238DF807300DF16B
:10E8E00007031846FEF7F4FF094BDB68013B084AB3
:10E8F000D360074BDB68002B01D1FFF76FFF9DF85A
:10E9000007301846FEF7FAFF00BF03B05DF804FBBE
:10E91000742C0020A890020000B585B003468DF845
:10E9200007309DF80730002B02D10C4B039301E018
:10E930000B4B03930398FFF7ABFF0290029B002B56
:10E9400006D0029B5B689DF8072010469847F1E7C8
:10E9500000BF00BF05B05DF804FB00BF7C2C0020A9
:10E96000842C002000B583B003468DF807309DF855
:10E970000730002B05D10A4B01225A700020FFF707
:10E98000CBFF9DF80730012B05D1054B01229A7072
:10E990000120FFF7C1FF00BF03B05DF804FB00BF1B
:10E9A000742C002000B583B001900091019B002BD6
:10E9B00005D1054B01225A700020FFF7ADFF00BFC3
:10E9C00003B05DF804FB00BF742C002000B585B0D7
:10E9D000034600918DF807309DF80730032B29D0AE
:10E9E000032B35DC002B02D0012B04D030E00020BB
:10E9F000FFF7C6FE2DE000238DF80F300DF10F0359
:10EA00001846FEF765FF154B1B7883F00103DBB258
:10EA1000002B01D0FFF702FF104BDB6801330F4AD8
:10EA2000D3600E4B01229A709DF80F301846FEF706
:10EA300065FF0EE0094B1B78002B04D1084940F21A
:10EA4000522004F00DF900F009FAFFF731FF00E061
:10EA500000BF00BF05B05DF804FB00BF742C0020B0
:10EA6000A890020000B589B001900091009B079327
:10EA7000019B1B788DF80C30019B5B680493019B14
:10EA80009B68DBB28DF81430019BDB680693074A64
:10EA9000079B52F823300649079A51F8221003AA1F
:10EAA0001046984700BF09B05DF804FB882C002091
:10EAB000902C002000B589B001900091009B079335
:10EAC000019B1B788DF80C30019B5B680493019BC4
:10EAD0009B68DBB28DF81430019BDB680693074A14
:10EAE000079B52F823300649079A51F8221003AACF
:10EAF0001046984700BF09B05DF804FB882C002041
:10EB0000902C002030B58FB0039002910192039BAE
:10EB10001B780C9326490C9B019A41F82320029BF9
:10EB20001A6924490C9B41F82320029B5B7F1946FC
:10EB3000214A0C9B13440A461A70029B04AC1D46E2
:10EB40000FCD0FC495E80F0084E80F000C9B0893CD
:10EB500000230D93039B1B781A46174B9B5C002BDD
:10EB60000DD0039B181D019B002B01D0134A00E020
:10EB7000002204AB194601F047FE0D9014E0039B00
:10EB80001B781A460C4B9B5C002B0DD1039B03F1A9
:10EB90000C00019B002B01D0094A00E0002204ABCD
:10EBA000194600F077FF0D900D9B18460FB030BD51
:10EBB000882C0020902C0020982C002065EA010071
:10EBC000B5EA010082B003468DF807309DF90730A1
:10EBD000002B0CDB9DF8073003F01F0205499DF95F
:10EBE00007305B09012000FA02F241F8232000BF40
:10EBF00002B0704700E100E082B0034600918DF85A
:10EC000007309DF90730002B0ADB009BDAB20C4974
:10EC10009DF907305201D2B20B4483F800230BE078
:10EC2000009BDAB207499DF8073003F00F03043B5D
:10EC30005201D2B20B441A7600BF02B0704700BF37
:10EC400000E100E000ED00E082B00190019B1B0BB1
:10EC50005BB2184602B0704700B583B003460A465F
:10EC60008DF8073013468DF806309DF80630012BDD
:10EC700003D99DF80630032B0BD99DF80630042BE1
:10EC800003D99DF80630072B03D908496B2003F000
:10EC9000E7FF9DF806209DF9073011461846FFF75B
:10ECA000ABFF00BF03B05DF804FB00BF2091020082
:10ECB00000B583B003468DF807309DF9073018463C
:10ECC000FFF780FF00BF03B05DF804FB82B003468E
:10ECD0008DF807300F4A9DF90730002B00DA1F33FB
:10ECE0005B115BB252F823209DF90730594203F0C3
:10ECF0001F0301F01F0158BF4B425BB222FA03F31E
:10ED000003F00103002B14BF01230023DBB21846DC
:10ED100002B0704700E100E082B001904FF0804205
:10ED2000019BC2F8083300BF02B0704782B00346AF
:10ED30008DF807309DF8073003F1804301221A60F7
:10ED400000BF02B0704784B00346ADF80630BDF88E
:10ED5000063003F1804300221A60BDF8063003F14B
:10ED600080431B680393039B00BF04B0704782B0CD
:10ED70000346ADF80630BDF8063003F180431B684A
:10ED8000002B14BF01230023DBB2184602B07047EA
:10ED900082B001904FF08042019BC2F8183500BF4D
:10EDA00002B070474FF08043D3F818341B0C03F0C7
:10EDB0000103002B14BF01230023DBB21846704768
:10EDC00000B583B006238DF807304FF08040FFF781
:10EDD0003BFF03461846FFF779FF034683F0010324
:10EDE000DBB2002B13D04FF08040FFF72DFF03461E
:10EDF0001A469DF8073019461046FFF72DFF4FF0D1
:10EE00008040FFF721FF03461846FFF751FF00BF80
:10EE100003B05DF804FB000000B585B00190019BD4
:10EE2000002B03D10B49A42003F01AFF0023039306
:10EE3000094B1B79002B02D08523039305E0064A7A
:10EE4000019B1360044B01221A71039B184605B005
:10EE50005DF804FB589102009C2C002008B5074B7C
:10EE60001B79002B03D10649BD2003F0F9FEFFF703
:10EE7000A7FF0120FFF78CFF00BF08BD9C2C0020DE
:10EE80005891020008B50D4B1B79002B03D10C499A
:10EE9000F72003F0E5FE0220FFF73EFF4FF48270FB
:10EEA000FFF751FF0C20FFF741FF00BFFFF77AFF8C
:10EEB0000346002BFAD100BF00BF08BD9C2C0020E8
:10EEC0005891020008B54FF48070FFF750FF0346D9
:10EED000002B0AD04FF48070FFF735FF0120FFF7B9
:10EEE0001BFF0C4B1B68002098474FF48270FFF704
:10EEF0003EFF0346002B0AD04FF48270FFF723FF3A
:10EF00000220FFF709FF034B1B680120984700BF51
:10EF100008BD00BF9C2C002000B583B00346ADF8AF
:10EF20000630BDF80630184600F026F803461B6888
:10EF3000012B0CBF01230023DBB2184603B05DF8A0
:10EF400004FB00B585B00346ADF80630BDF80630C9
:10EF5000184600F011F803461A4600231360BDF866
:10EF60000630184600F008F803461B680393039B1D
:10EF700000BF05B05DF804FB82B00346ADF8063073
:10EF8000BDF8063003F1804303F5C043184602B0D4
:10EF90007047000082B00190034BD3F80423019B1B
:10EFA0001340184602B070470060004082B00190E4
:10EFB000054A019B03F5A27352F823301B0A03F0A4
:10EFC0003F03184602B070470060004082B00190D5
:10EFD000064A019B03F5A27352F823301B0C03F081
:10EFE0000303DBB2184602B0704700BF0060004068
:10EFF00000B583B00190019B1B68184600F0AAF889
:10F000000346002B04D10B494FF4F67003F028FEA1
:10F01000019B1B681F2B02D84FF0A04306E0019B09
:10F020001B6803F01F02019B1A60034B184603B0D4
:10F030005DF804FB009202000003005000B585B0AB
:10F0400001900B468DF8033001AB1846FFF7D0FF57
:10F050000390019A039B02F5E07253F82230019A63
:10F0600023F44031039B02F5E07243F82210019A29
:10F07000039B02F5E07253F822309DF8032012043E
:10F080001146019A1943039B02F5E07243F82210DE
:10F0900000BF05B05DF804FB00B585B0019001AB81
:10F0A0001846FFF7A5FF0390019A039B02F5E07253
:10F0B00053F822301B0C03F00303DBB2184605B0F3
:10F0C0005DF804FB88B0039002910192164A05ABEB
:10F0D00092E8030083E80300039B079319E0079B72
:10F0E0009B0008AA134453F80C3CD3F82025019B3D
:10F0F0001A60079B9B0008AA134453F80C3C019A22
:10F100001268C3F82025019B04330193079B013348
:10F110000793039A029B1344079A9A42DFD300BFD6
:10F1200000BF08B0704700BF3092020000B585B044
:10F13000019001AB1846FFF75BFF0390019B012292
:10F1400002FA03F31A46039BC3F8202500BF05B05B
:10F150005DF804FB84B00190019B5B0902930023DE
:10F160000393029B002B03D0029B012B04D007E0EA
:10F170004FF0FF33039303E040F2FF33039300BFEC
:10F18000019B03F01F030193039A019B22FA03F3EF
:10F1900003F00103002B14BF01230023DBB2184648
:10F1A00004B0704784B001900091009B0393019BD1
:10F1B000DB080293019B03F0070301930122019BEB
:10F1C00002FA03F30399029A0A441278134018468C
:10F1D00004B0704782B00190044A019B134430335D
:10F1E00093F90030184602B0704700BFA42C0020ED
:10F1F00082B00190034A019B52F82330184602B0B6
:10F20000704700BFA42C002084B00190074A019BE6
:10F2100013445A3393F900308DF80F309DF80F30B6
:10F2200023F0C003184604B0704700BFA42C002090
:10F2300084B00190074A019B13445A3393F900307C
:10F240008DF80F309DF80F309B09DBB2184604B0E3
:10F25000704700BFA42C002000B585B00190019A32
:10F2600002210020FFF72EFF002303930BE0039BF6
:10F270009B00019A13441B68002B01D0012306E078
:10F28000039B01330393039B012BF0D90023184602
:10F2900005B05DF804FB000000B587B001900023C5
:10F2A00005935BE0344A059B13445A3393F90030CD
:10F2B000B3F1FF3F4ED00598FFF7A6FF04900199E8
:10F2C0000498FFF76FFF0346002B44D00598FFF723
:10F2D000AFFF03468DF80F300498FFF7DDFE0346BD
:10F2E0008DF80E309DF80E30022B01D1032300E083
:10F2F00002238DF80D309DF80D3019460498FFF764
:10F300009DFE0498FFF712FF0498FFF763FF034682
:10F310001846FFF76DFF0290029B002B1BD09DF853
:10F320000F30032B0FD09DF80E30022B03D19DF828
:10F330000F30012B07D09DF80E30032B0BD19DF819
:10F340000F30022B07D19DF80F20029B1146049825
:10F35000984700E000BF059B01330593059B032BF5
:10F36000A0D90198FFF778FF0346002B97D100BF83
:10F3700000BF07B05DF804FBA42C002000B58BB0E3
:10F380000023089301AB00221A605A604FF4807387
:10F39000ADF81A30012309930023079321E0BDF84B
:10F3A0001A301846FFF7B8FD0346002B0ED0099817
:10F3B000FFF7F0FD0346002B08D0BDF81A301846C1
:10F3C000FFF7BFFD089A099B13430893099B5B0055
:10F3D0000993BDF81A300433ADF81A30079B013396
:10F3E0000793079B072BDAD94FF4BE70FFF794FD04
:10F3F0000346002B0DD04FF4BE70FFF7A2FD089B13
:10F4000043F00043089301AB1A4602210020FFF7A6
:10F4100059FE089BDBB2002B29D00123099300235E
:10F42000079321E0099A089B1340002B16D00798F8
:10F43000FFF7BCFD05900798FFF7C8FD03468DF860
:10F4400013300798FFF7D4FE0390039B002B05D0E1
:10F450009DF81320039B114605989847099B5B0074
:10F460000993079B01330793079B072BDAD9089B66
:10F47000002B03DA01AB1846FFF70EFF00BF0BB0FD
:10F480005DF804FB08B5064B1B68002B03D105494A
:10F49000512003F0E5FB024B1B68984700BF08BDF5
:10F4A0000C2D0020BC92020082B00190019B044A06
:10F4B000934201D1034B00E00023184602B070478D
:10F4C000002000400C2D002000B587B00190009175
:10F4D000019B002B03D11C49772003F0C1FB01984D
:10F4E000FFF7E2FF0590059B002B25D000238DF848
:10F4F000133000238DF80B300DF10B031846FEF787
:10F50000E7F9059B1B79002B03D001238DF81330FD
:10F5100005E0059B009A1A60059B01221A719DF86F
:10F520000B301846FEF7EAF99DF81330002B03D094
:10F5300011230393039B02E000230393039B1846CC
:10F5400007B05DF804FB00BFBC92020082B0034626
:10F550008DF807309DF90730002B0CDB9DF8073044
:10F5600003F01F0205499DF907305B09012000FAED
:10F5700002F241F8232000BF02B0704700E100E032
:10F5800082B0034600918DF807309DF90730002BBB
:10F590000ADB009BDAB20C499DF907305201D2B266
:10F5A0000B4483F800230BE0009BDAB207499DF877
:10F5B000073003F00F03043B5201D2B20B441A761A
:10F5C00000BF02B0704700BF00E100E000ED00E0C6
:10F5D00082B00190019B1B0B5BB2184602B07047D2
:10F5E00000B583B003460A468DF8073013468DF800
:10F5F00006309DF80630012B03D99DF80630032B09
:10F600000BD99DF80630042B03D99DF80630072B43
:10F6100003D908496B2003F023FB9DF806209DF9D0
:10F62000073011461846FFF7ABFF00BF03B05DF887
:10F6300004FB00BF3493020000B583B003468DF88D
:10F6400007309DF907301846FFF780FF00BF03B071
:10F650005DF804FB84B001900B46ADF80230BDF8B4
:10F660000230019A134400221A60BDF80230019A58
:10F6700013441B680393039B00BF04B0704782B020
:10F6800001900B46ADF80230BDF80230019A1344E8
:10F690001B68002B14BF01230023DBB2184602B005
:10F6A000704782B001900091019B009AC3F8042337
:10F6B00000BF02B0704782B001900091019BD3F867
:10F6C0000423009B1340002B14BF01230023DBB253
:10F6D000184602B0704782B001900091019B009AD9
:10F6E000C3F8082300BF02B0704784B00190019BAB
:10F6F000D3F880340393019B039AC3F88024039BBF
:10F70000184604B0704782B00190019B0422C3F8F0
:10F71000002500BF02B0704784B0039002910192AF
:10F72000039B019AC3F81425039B029AC3F80C2586
:10F7300000BF04B0704784B0039002910192039B14
:10F74000029AC3F80825039B019AC3F8102500BF4D
:10F7500004B0704782B00190019BD3F81835DBB23A
:10F76000184602B0704782B001900B468DF8033006
:10F770009DF80320019BC3F81C2500BF02B0704711
:10F7800082B001900B468DF803309DF80330019A4A
:10F79000134401221A6000BF02B0704782B001908A
:10F7A0000B468DF8033013468DF802309DF8032088
:10F7B0009DF802301343DBB21A46019BC3F86C2557
:10F7C00000BF02B0704782B001900091019B009A87
:10F7D000C3F8242500BF02B07047000000B583B015
:10F7E0000190019B1B68184600F093F80346002B1C
:10F7F00004D10B494FF4F67003F032FA019B1B68F9
:10F800001F2B02D84FF0A04306E0019B1B6803F0BA
:10F810001F02019B1A60034B184603B05DF804FBFE
:10F82000649302000003005000B585B001900846C3
:10F8300011461A4603468DF803300B468DF8023008
:10F8400013468DF8013001AB1846FFF7C7FF039050
:10F850009DF803209DF802305B001A439DF80130AB
:10F860009B001A439DF818301B0242EA03019DF8E1
:10F870001C301B04019A1943039B02F5E07243F804
:10F88000221000BF05B05DF804FB00B585B0039001
:10F8900000230193002300930023012201210398F8
:10F8A000FFF7C2FF00BF05B05DF804FB00B585B0EF
:10F8B00003900B468DF80B309DF80B30002201921F
:10F8C00000220092002200210398FFF7ADFF00BF45
:10F8D00005B05DF804FB00B585B0019001AB18469A
:10F8E000FFF77CFF0390019B012202FA03F3194604
:10F8F000039800F004F800BF05B05DF804FB82B087
:10F9000001900091019B009AC3F8082500BF02B046
:10F91000704784B00190019B5B090293002303931D
:10F92000029B002B03D0029B012B04D007E04FF079
:10F93000FF33039303E040F2FF33039300BF019BC7
:10F9400003F01F030193039A019B22FA03F303F0D0
:10F950000103002B14BF01230023DBB2184604B0BF
:10F96000704700B583B001900091009B1B68B3F114
:10F97000FF3F09D0009B1B681846FFF7ACFF009BB8
:10F980001B681846FFF781FF009B5B68B3F1FF3FE0
:10F9900005D0009B5B6800211846FFF787FF019B9D
:10F9A0001A68009B9B6919461046FFF70CFF019BE4
:10F9B0001868009B597D009B1B7D1A46FFF7EEFEE1
:10F9C000019B1868009B1968009B5B681A46FFF74B
:10F9D000A3FE009B1B7D012B22D1009B9B68B3F1F2
:10F9E000FF3F05D0009B9B6800211846FFF75EFF94
:10F9F000009BDB68B3F1FF3F09D0009BDB68184632
:10FA0000FFF769FF009BDB681846FFF73EFF019B8D
:10FA10001868009BD968009B9B681A46FFF78BFE0D
:10FA200000BF03B05DF804FB00B583B001900B4646
:10FA30008DF80330019B1B684FF48E711846FFF759
:10FA400009FE019B1B684FF4A2711846FFF702FEE6
:10FA5000019B1B680E491846FFF723FE019B1B689C
:10FA60001846FFF7B5FD03461A469DF803301946C0
:10FA70001046FFF7B5FD019B1B681846FFF7A8FD70
:10FA800003461846FFF7D8FD00BF03B05DF804FB3E
:10FA90008000020000B587B0039002910192029BA2
:10FAA000002B03D12D49AA2003F0DAF8039B1B7920
:10FAB0001A462C2303FB02F3294A13440493002320
:10FAC0000593049B93F82A30002B03D00823059359
:10FAD000059B3EE0039B1A68039B1B791946214B4B
:10FAE00053F8213019461046FFF7EEFC0346002B71
:10FAF00003D011230593059B2BE002990398FFF790
:10FB000030FF049B019A5A60029B1A69049B1A6099
:10FB1000049B5B68002B05D0029B1B7F1946039852
:10FB2000FFF782FF039B1B681846FFF7ECFD049B61
:10FB300000229A61049B0022DA61049B002283F870
:10FB40002920049B00225A61049B012283F82A2069
:10FB5000059B184607B05DF804FB00BF9C930200AC
:10FB6000142D00201494020000B585B0019000917E
:10FB70004FF48E710198FFF76DFD009B9A68009B12
:10FB80001B6A13441B788DF80F30009B1B6A5A1CAC
:10FB9000009B1A629DF80F3019460198FFF7E3FDAC
:10FBA00000BF05B05DF804FB00B585B00190009181
:10FBB000009B5B69039316E0009B93F82830DBB24F
:10FBC000002B01D0002314E04FF48E710198FFF751
:10FBD00056FD034683F00103DBB2002BECD1009904
:10FBE0000198FFF7C1FF009B1B6A039A9A42EBD86A
:10FBF0000123184605B05DF804FB000000B587B08E
:10FC0000039002910192039B1B791A462C2303FB5C
:10FC100002F33C4A13440493049B93F82A30012BCB
:10FC200004D039494FF48C7003F01AF8029B002B72
:10FC300004D1354940F2191003F012F8019B002B52
:10FC400004D131494FF48D7003F00AF8039800F0A5
:10FC50005DF80346002B03D011230593059B4CE070
:10FC6000049B019A5A61049B029A9A60049B0022A9
:10FC70001A62049B002283F8282000230593039B2B
:10FC80001B684FF48E711846FFF7E4FC039B1B685A
:10FC900008211846FFF774FD039B1B68049918465A
:10FCA000FFF762FF049B5B68002B25D1039B1B6859
:10FCB00004991846FFF778FF034683F00103DBB28F
:10FCC000002B02D00F23059313E000BF039B1B689A
:10FCD0004FF48E711846FFF7D2FC034683F0010300
:10FCE000DBB2002BF2D1039B1B680C211846FFF7F7
:10FCF00047FD049B00225A61059B184607B05DF83A
:10FD000004FB00BF142D00209C93020082B00190E0
:10FD1000019B1B791946074A2C2303FB01F313446B
:10FD200014331B68002B14BF01230023DBB21846D9
:10FD300002B07047142D002000B583B00190019BE4
:10FD40001B684FF492711846FFF784FC019B1B68F7
:10FD50004FF484711846FFF77DFC019B1B6800215E
:10FD60001846FFF70DFD00BF03B05DF804FB10B5AA
:10FD700082B001900091009B9B69002B08D14FF449
:10FD800084710198FFF766FC0198FFF7E3FC13E02C
:10FD90004FF484710198FFF75DFC009BDA68009BCB
:10FDA0005B6AD4180198FFF7D5FC03462370009BCB
:10FDB0005B6A5A1C009B5A6202B010BD00B589B044
:10FDC000039002910192039B1B791A462C2303FB9B
:10FDD00002F37F4A13440593039B1B7919467C4A1F
:10FDE0002C2303FB01F313442A331B78012B04D08B
:10FDF00078494FF4B67002F033FF029B002B04D118
:10FE0000744940F26D1002F02BFF019B002B04D1CE
:10FE100070494FF4B77002F023FF00238DF81C30B7
:10FE2000059B5B68002B06D0039B1B684FF4017198
:10FE30001846FFF750FC059B9B69002B15D0059BCE
:10FE4000DB69002B0ED0059B5B68002B06D0039B63
:10FE50001B684FF401711846FFF723FC112306932A
:10FE6000069BB0E001238DF81C309DF81C3083F018
:10FE70000103DBB2002B0CD0059B019A9A61059B14
:10FE8000029ADA60059B00225A62059B0022DA6121
:10FE900005E0059B029A1A61059B019ADA61059BB0
:10FEA00093F8293083F00103DBB2002B09D09DF8D1
:10FEB0001C3083F00103DBB2002B02D00398FFF764
:10FEC0003BFF059B5B68002B73D1039B1B684FF4C2
:10FED000A2711846FFF7BEFB039B1B684FF492719B
:10FEE0001846FFF7CCFB03468DF81F30039B1B68B9
:10FEF0004FF484711846FFF7C2FB03468DF81E309D
:10FF0000039B1B684FF4A2711846FFF7B8FB03462A
:10FF10008DF81D309DF81E3083F00103DBB2002BFD
:10FF20000DD09DF81D3083F00103DBB2002B06D00D
:10FF30009DF81F3083F00103DBB2002BCCD19DF87C
:10FF40001F30002B0FD19DF81D30002B0BD1039BD0
:10FF50001B6805991846FFF70AFF059B9A69059BE0
:10FF60005B6A9A42B8D8059B00229A619DF81F30BF
:10FF7000002B03D003230693069B24E09DF81D303D
:10FF8000002B03D00F230693069B1CE0059B93F8E0
:10FF90002930002B06D0039B1B6800211846FFF771
:10FFA000EFFB0DE0039B1B6804211846FFF7E8FBFD
:10FFB00006E0039B1B684FF401711846FFF771FBC5
:10FFC00000230693069B184609B05DF804FB00BFAA
:10FFD000142D00209C93020000B589B0039002917B
:10FFE000019201238DF81030029B0693019B05932B
:10FFF000039B5B68039A116804AA1046984700BFE8
:020000022000DC
:1000000009B05DF804FB00B587B0019000910023B2
:100010008DF80830009B0493019B9B680393019B20
:1000200000225A61019B5B68019A116802AA10467E
:10003000984700BF07B05DF804FB00B58BB0019096
:1000400000914FF400710198FFF735FB0346002B38
:1000500039D04FF492710198FFF711FB0346002B42
:1000600031D04FF492710198FFF7F4FA4FF4017117
:100070000198FFF730FB009B93F8293083F00103D0
:10008000DBB2002B03D004210198FFF779FB022398
:100090008DF80C300198FFF728FB03460693009B70
:1000A0009B690593009BDB680493009B00229A6187
:1000B000009B0022DA61009B5B68009A116803AA2A
:1000C0001046984752E004210198FFF7F4FA0346DE
:1000D000002B4BD04FF484710198FFF7D0FA034600
:1000E000002B43D000990198FFF741FE009B9A69CD
:1000F000009B5B6A9A4239D1009BDB69002B19D0C7
:10010000009BDB680993009B5B6A0893009BDA699C
:10011000009B9A61009B1A69009BDA60009B002299
:10012000DA61009B00225A62099A08990098FFF749
:1001300053FF1BE0009B93F8293083F00103DBB2EF
:10014000002B03D004210198FFF71AFB4FF4017133
:100150000198FFF7C0FA009B00229A61009B596A40
:10016000009BDB681A460098FFF736FF4FF48E714C
:100170000198FFF784FA0346002B24D0009B5B69AB
:100180000793009B1B6A079A9A420DD9009B93F82C
:100190002830DBB283F00103DBB2002B04D00099DE
:1001A0000198FFF7E1FC0EE04FF48E710198FFF724
:1001B00051FA009B5B69002B05D0009B5B691946D7
:1001C0000098FFF720FF4FF4A2710198FFF757FA4C
:1001D0000346002B1CD04FF4A2710198FFF73AFAA6
:1001E000009B93F82930002B03D000210198FFF7E2
:1001F000C7FA009B9B69002B0AD0009B00229A61E2
:10020000009B596A009BDB681A460098FFF7E4FEE2
:1002100000BF0BB05DF804FB08B503490348FFF7C6
:100220000CFF00BF08BD00BF142D002000200040BF
:1002300082B003468DF807309DF90730002B0CDBA8
:100240009DF8073003F01F0205499DF907305B094F
:10025000012000FA02F241F8232000BF02B07047EB
:1002600000E100E082B0034600918DF807309DF96F
:100270000730002B0ADB009BDAB20C499DF90730EE
:100280005201D2B20B4483F800230BE0009BDAB298
:1002900007499DF8073003F00F03043B5201D2B227
:1002A0000B441A7600BF02B0704700BF00E100E0C7
:1002B00000ED00E082B00190019B03F06043B3F1D8
:1002C000005F0CBF01230023DBB2184602B0704769
:1002D00082B00190019B1B0B5BB2184602B07047C5
:1002E00000B583B003460A468DF8073013468DF8F3
:1002F00006309DF80630012B03D99DF80630032BFC
:100300000BD99DF80630042B03D99DF80630072B36
:1003100003D908496B2002F0A3FC9DF806209DF943
:10032000073011461846FFF79DFF00BF03B05DF888
:1003300004FB00BF1894020000B583B003468DF89B
:1003400007309DF907301846FFF772FF00BF03B072
:100350005DF804FB84B001900B46ADF80230BDF8A7
:100360000230019A134400221A60BDF80230019A4B
:1003700013441B680393039B00BF04B0704782B013
:1003800001900B46ADF80230BDF80230019A1344DB
:100390001B68002B14BF01230023DBB2184602B0F8
:1003A000704782B001900091019BD3F80022009B1E
:1003B0001A43019BC3F8002200BF02B0704782B00D
:1003C00001900091019BD3F80022009BDB431A406F
:1003D000019BC3F8002200BF02B0704782B00190B9
:1003E0000091019B009AC3F8042300BF02B070473C
:1003F00082B001900091019B009AC3F8082300BFCE
:1004000002B0704784B00190019BD3F8803403930D
:10041000019B039AC3F88024039B184604B07047DD
:1004200082B00190019B0822C3F8002500BF02B0F2
:10043000704784B0039002910192039B029AC3F823
:100440000C25039B019AC3F8142500BF04B0704724
:1004500084B0039002910192039B029AC3F808258D
:10046000039B019AC3F8102500BF04B0704782B007
:1004700001900B468DF803309DF80330019A134428
:1004800001221A6000BF02B0704782B001900B4693
:100490008DF8033013468DF802309DF803209DF847
:1004A00002301343DBB21A46019BC3F86C2500BF30
:1004B00002B0704782B001900091019B009AC3F88E
:1004C000242500BF02B0704784B0039002910192CE
:1004D000029A039BC3F84425039B019AC3F848255D
:1004E00000BF04B0704782B00190019BD3F84C3537
:1004F000184602B0704784B0039002910192029AAC
:10050000039BC3F83425039B019AC3F8382500BF29
:1005100004B0704782B00190019BD3F83C35184677
:1005200002B0704700B583B00190019B1B6818466C
:1005300000F093F80346002B04D10B494FF4F670FA
:1005400002F08EFB019B1B681F2B02D84FF0A043CB
:1005500006E0019B1B6803F01F02019B1A60034B1E
:10056000184603B05DF804FB4894020000030050F5
:1005700000B585B00190084611461A4603468DF82D
:1005800003300B468DF8023013468DF8013001AB75
:100590001846FFF7C7FF03909DF803209DF802302F
:1005A0005B001A439DF801309B001A439DF81830F8
:1005B0001B0242EA03019DF81C301B04019A1943F7
:1005C000039B02F5E07243F8221000BF05B05DF80E
:1005D00004FB00B585B00390002301930023009332
:1005E0000023012201210398FFF7C2FF00BF05B0DD
:1005F0005DF804FB00B585B003900B468DF80B3019
:100600009DF80B300022019200220092002200216E
:100610000398FFF7ADFF00BF05B05DF804FB00B520
:1006200085B0019001AB1846FFF77CFF0390019B5A
:10063000012202FA03F31946039800F004F800BF00
:1006400005B05DF804FB82B001900091019B009A17
:10065000C3F8082500BF02B0704784B00190019B29
:100660005B09029300230393029B002B03D0029BA0
:10067000012B04D007E04FF0FF33039303E040F277
:10068000FF33039300BF019B03F01F030193039A01
:10069000019B22FA03F303F00103002B14BF012393
:1006A0000023DBB2184604B0704700B583B0019058
:1006B0000091009B1B68B3F1FF3F09D0009B1B68B2
:1006C0001846FFF7ACFF009B1B681846FFF781FF39
:1006D000009B5B68B3F1FF3F05D0009B5B68002186
:1006E0001846FFF787FF019B1A68009B9B69194614
:1006F0001046FFF7DFFE019B1868009B597D009BA9
:100700001B7D1A46FFF7C1FE019B1868009B196804
:10071000009B5B681A46FFF78CFE009B1B7D012B3C
:1007200022D1009B9B68B3F1FF3F05D0009B9B68E3
:1007300000211846FFF75EFF009BDB68B3F1FF3F27
:1007400009D0009BDB681846FFF769FF009BDB6858
:100750001846FFF73EFF019B1868009BD968009B75
:100760009B681A46FFF774FE00BF03B05DF804FBF8
:1007700000B583B001900B468DF80330019B1B68D8
:100780004FF488711846FFF7E5FD019B1B684FF495
:1007900090711846FFF7DEFD019B1B684FF49271C4
:1007A0001846FFF7D7FD019B1B684FF4A27118464E
:1007B000FFF7D0FD019B1B684FF4AC711846FFF7A3
:1007C000C9FD019B1B680F491846FFF707FE019BF7
:1007D0001B681846FFF77CFD03461A469DF8033058
:1007E00019461046FFF77CFD019B1B681846FFF772
:1007F0006FFD03461846FFF79FFD00BF03B05DF88D
:1008000004FB00BF1003420000B587B003900291C3
:100810000192029B002B03D12B49CF2002F020FA3A
:10082000039B1B791A461346DB0013449B00274A9F
:100830001344049300230593049B93F82030002B6A
:1008400003D008230593059B3AE0039B1A68039B9A
:100850001B7919461E4B53F8213019461046FEF7F6
:1008600033FE0346002B03D011230593059B27E09D
:1008700002990398FFF719FF049B019A5A60029BA3
:100880001A69049B1A60049B5B68002B05D0029BCD
:100890001B7F19460398FFF76BFF039B1B681846E5
:1008A000FFF7BEFD049B00229A61049B0022DA61DF
:1008B000049B00225A61049B012283F82020059B9F
:1008C000184607B05DF804FB80940200402D00201C
:1008D000F894020000B589B0039002910192039B45
:1008E0001B791A461346DB0013449B00574A1344F6
:1008F0000593059B93F82030012B04D0544940F216
:10090000531002F0ADF9029B002B04D150494FF473
:10091000AA7002F0A5F9019B002B04D14C4940F2CA
:10092000551002F09DF9039B1B79002B03D1019B0D
:10093000B3F5803F04D346494FF4AB7002F090F911
:100940000298FFF7B7FC034683F00103DBB2002BEC
:1009500003D010230793079B73E0039800F07AF805
:100960000346002B03D011230793079B69E0059BE7
:10097000019A5A61059B029A9A6000230793039B90
:100980001B684FF490711846FFF7E4FC039B1B684B
:100990004FF4AC711846FFF7DDFC039B1868059B0C
:1009A0009968059B5B691A46FFF78EFD039B1B68E0
:1009B00008211846FFF75BFD059B5B68002B3FD1C4
:1009C000039B1B684FF490711846FFF7D8FC034651
:1009D0008DF81B30039B1B684FF4AC711846FFF772
:1009E000CEFC03468DF81A309DF81B3083F00103CE
:1009F000DBB2002B06D09DF81A3083F00103DBB286
:100A0000002BDDD19DF81A30002B02D00F23079365
:100A100013E0039B1B680C211846FFF728FD00BF5D
:100A2000039B1B684FF4AC711846FFF7A8FC034604
:100A300083F00103DBB2002BF2D1059B00225A6147
:100A4000079B184609B05DF804FB00BF402D00204D
:100A50008094020082B00190019B1B791946084ADC
:100A60000B46DB000B449B00134414331B68002B24
:100A700014BF01230023DBB2184602B0704700BF49
:100A8000402D002000B589B0039002910192039B94
:100A90001B791A461346DB0013449B00864A134415
:100AA0000593039B1B791946834A0B46DB000B44D5
:100AB0009B00134420331B78012B04D07F494FF453
:100AC000D37002F0CDF8029B002B04D17B4940F299
:100AD000A71002F0C5F8019B002B04D177494FF411
:100AE000D47002F0BDF8039B1B79002B03D1019B4E
:100AF000B3F5803F04D3714940F2A91002F0B0F879
:100B00000298FFF7D7FB034683F00103DBB2002B0B
:100B100003D010230693069BCAE000238DF81F30F4
:100B2000059B5B68002B06D0039B1B684FF4047188
:100B30001846FFF75DFC059B9B69002B15D0059BB4
:100B4000DB69002B0ED0059B5B68002B06D0039B56
:100B50001B684FF404711846FFF740FC11230693FD
:100B6000069BA5E001238DF81F309DF81F3083F010
:100B70000103DBB2002B09D0059B019A9A61059B0A
:100B8000029ADA60059B0022DA6105E0059B029A71
:100B90001A61059B019ADA6100230693039B1B6887
:100BA0004FF488711846FFF7D5FB039B1B684FF481
:100BB000A2711846FFF7CEFB039B1B68019A0299AE
:100BC0001846FFF798FC9DF81F3083F00103DBB255
:100BD000002B06D0039B1B6800211846FFF747FC3B
:100BE00005E0039B1B6820211846FFF7DAFB039BF7
:100BF0001B791946304A0B46DB000B449B0013441B
:100C000004331B68002B4BD1039B1B684FF4887186
:100C10001846FFF7B4FB03468DF81330039B1B689F
:100C20004FF4A2711846FFF7AAFB03468DF8123065
:100C3000039B1B684FF492711846FFF7A0FB034615
:100C40008DF811309DF8133083F00103DBB2002BD7
:100C50000DD09DF8123083F00103DBB2002B06D0DB
:100C60009DF8113083F00103DBB2002BCCD1039B44
:100C70001B791946104A0B46DB000B449B001344BA
:100C8000183300221A609DF81130002B01D0032385
:100C900006939DF81230002B09D00F23069306E02F
:100CA000039B1B684FF404711846FFF797FB069BE4
:100CB000184609B05DF804FB402D00208094020026
:100CC00000B589B003900291019201238DF8103094
:100CD000029B0693019B0593039B5B68039A116833
:100CE00004AA1046984700BF09B05DF804FB00B5A0
:100CF00087B00190009100238DF80830009B049389
:100D0000019B9B680393019B00225A61019B5B68D6
:100D1000019A116802AA1046984700BF07B05DF813
:100D200004FB00B589B0019000914FF492710198D5
:100D3000FFF725FB0346002B22D04FF49271019858
:100D4000FFF708FB02238DF808300198FFF75AFBE4
:100D5000034605930198FFF7DDFB03460493009BD0
:100D6000DB680393009B00229A61009B0022DA61FA
:100D7000009B5B68009A116802AA104698473BE006
:100D80004FF488710198FFF7FAFA0346002B33D02D
:100D90004FF488710198FFF7DDFA0198FFF7BAFB6D
:100DA0000790009B9B69079A9A4225D1009BDB69BB
:100DB000002B17D0009BDB68069320210198FFF7DA
:100DC000FEFA009BDA69009B9A61009B1A69009BFE
:100DD000DA60009B0022DA61069A07990098FFF713
:100DE0006FFF09E0009B00229A61009BDB681A46B6
:100DF00007990098FFF764FF4FF4A2710198FFF77D
:100E0000BEFA0346002B18D04FF4A2710198FFF7E9
:100E1000A1FA009B9B69002B0FD0009B00229A61D6
:100E2000009B0022DA610198FFF774FB0146009BEA
:100E3000DB681A460098FFF743FF4FF49071019862
:100E4000FFF79DFA0346002B14D04FF490710198E0
:100E5000FFF780FA0C210198FFF709FB009B5B6903
:100E6000002B07D00198FFF73EFB03461946009878
:100E7000FFF73DFF4FF4AC710198FFF780FA03468E
:100E8000002B10D04FF4AC710198FFF763FA009B70
:100E90005B69002B07D00198FFF725FB0346194635
:100EA0000098FFF724FF00BF09B05DF804FB0000C5
:100EB00008B503490348FFF734FF00BF08BD00BF72
:100EC000402D00200020004082B003468DF80730FE
:100ED0009DF90730002B0CDB9DF8073003F01F0253
:100EE00005499DF907305B09012000FA02F241F83B
:100EF000232000BF02B0704700E100E082B003464B
:100F000000918DF807309DF90730002B0ADB009B1C
:100F1000DAB20C499DF907305201D2B20B4483F882
:100F200000230BE0009BDAB207499DF8073003F07D
:100F30000F03043B5201D2B20B441A7600BF02B039
:100F4000704700BF00E100E000ED00E000B583B0B5
:100F500003460A468DF8073013468DF806309DF893
:100F60000630012B03D99DF80630032B0BD99DF8D1
:100F70000630042B03D99DF80630072B03D9084906
:100F80006B2001F06DFE9DF806209DF9073011469B
:100F90001846FFF7B3FF00BF03B05DF804FB00BFC6
:100FA000FC94020000B583B003468DF807309DF92C
:100FB00007301846FFF788FF00BF03B05DF804FB59
:100FC00082B003468DF807309DF8073003F1804367
:100FD00003F5E04301221A6000BF02B0704782B0FF
:100FE0000346ADF80630BDF8063003F1804303F543
:100FF000E0431B68002B14BF01230023DBB218461B
:1010000002B0704784B00346ADF80630BDF8063034
:1010100003F1804303F5E04300221A60BDF8063077
:1010200003F1804303F5E0431B680393039B00BF78
:1010300004B0704782B003468DF807300B468DF838
:10104000063013468DF805300A499DF807309DF8A3
:10105000052051331B010B4404331A6005499DF8E8
:1010600007309DF8062051331B010B441A6000BF66
:1010700002B070470070004082B00190034A019BAB
:10108000C2F8043300BF02B0704700BF00700040D8
:1010900082B00190034A019BC2F8083300BF02B03E
:1010A000704700BF00700040024B0122C3F80025CA
:1010B00000BF70470070004082B001900091054A67
:1010C000019BC2F82C36034A009BC2F8303600BFA1
:1010D00002B070470070004082B003468DF80730C0
:1010E000034A9DF80730C2F8F03500BF02B07047E0
:1010F0000070004082B003468DF80730034A9DF827
:101100000730C2F8F43500BF02B0704700700040ED
:10111000024BD3F8F435DBB218467047007000403C
:1011200000B583B0034600918DF80730009B1B7813
:1011300003F00302009B5B781B0103F030031A43AA
:10114000009B9B781B0203F4E0631A43009BDB784F
:101150001B0303F480531A43009B1B791B0403F405
:10116000E0231A43009B5B791B0503F4801342EADA
:101170000301009B9B791B0603F080720A489DF8CF
:1011800007300A431B01034403F5A3631A60009B65
:10119000D979009B1A7A9DF807301846FFF74AFF65
:1011A00000BF03B05DF804FB0070004000B58FB0D5
:1011B0004FF48270FFF713FF0346002B46D04FF425
:1011C0008270FFF71FFF904B93F82E3083F00103DE
:1011D000DBB2002B04D18C4B93F82F30002B35D091
:1011E00000238DF81C30884B5B680893864B1B8965
:1011F0009BB2ADF82430844BDB68002B03D1824BCB
:1012000000221A7419E0804B1A8B7F4B5A837E4B55
:10121000DB687D4A53607C4B1A8B7B4B1A817A4B7F
:101220000022DA60784B93F82E3083F00103DBB2B2
:10123000002B02D00020FFF7C3FE734B1B6807AAE8
:1012400010469847704B002283F82F206E4B93F87E
:101250002E30002B62D04FF48070FFF7C0FE0346A3
:10126000002B5BD04FF48070FFF7CCFE664B5A8B9F
:10127000654B93F82D309BB29A421CD9624B5A8B26
:10128000614B93F82D309BB2D31A9AB25E4B5A83BE
:101290005D4B5A685C4B1B899BB219465A4B5B8B62
:1012A000CB1A5B001344584A92F82D201146184679
:1012B000FFF702FF2BE0544B5A8B534B93F82D3022
:1012C0009BB29A4214D1504BDB68002B10D04E4B8E
:1012D000012283F82F204C4B00225A834A4BDB68B3
:1012E000494A92F82D2011461846FFF7E5FE0EE018
:1012F000454B5A8B444B93F82D309BB29A4206D102
:10130000414B012283F82F203F4B00225A834FF498
:101310008270FFF777FE0420FFF752FE4FF48870CB
:10132000FFF75DFE0346002B0ED04FF48870FFF7E9
:1013300069FE354B00221A7402238DF81030324BAF
:101340001B6804AA104698474FF48A70FFF747FEBF
:101350000346002B07D04FF48A70FFF753FE2A4B49
:1013600000221A744CE0284B5B690D9345E00D9BFD
:101370000A930A9B002B01D1202303E00A9BB3FAB6
:1013800083F3DBB20C934FF000420C9B22FA03F381
:10139000DB430D9A13400D930C9B9BB246339BB2DB
:1013A0009B00ADF82E30BDF82E301846FFF717FE23
:1013B0000346002B21D0BDF82E301846FFF722FE41
:1013C00001238DF80430BDF82E30A3F58C73DB08B3
:1013D000DBB28DF80830BDF82E30A3F58C7303F026
:1013E0000403002B0CBF01230023DBB28DF809306E
:1013F000054B1B6801AA104698470D9B002BB6D1E0
:1014000000BF0FB05DF804FB642D002000B585B06F
:1014100001900091019B002B03D13249D82001F0AB
:101420001FFC009B002B03D12E49D92001F018FC92
:101430002D4B93F82C30002B03D008230393039BF0
:101440004CE0294A009B1360019B1B781846FFF76C
:1014500043FE019B5B781846FFF74CFE019BDA7850
:10146000214B83F82E20204B012283F82C201E4B89
:1014700000221A741C4B002283F82D201A4B0022E4
:101480005A61194B002283F82F206FF00040FFF7BC
:10149000FFFD4FF48270FFF7B5FD4FF48070FFF74A
:1014A000B1FD4FF48A70FFF7ADFD019B9B781946A3
:1014B0000720FFF74BFD0720FFF774FD0220FFF721
:1014C000DBFD094B93F82E30002B02D00120FFF7F3
:1014D000D3FDFFF7E9FD00230393039B184605B0F6
:1014E0005DF804FB64950200642D002000B585B012
:1014F000034600918DF80730394B93F82C30002BC0
:1015000004D1384940F2251001F0AAFB9DF80730BC
:10151000072B04D933494FF4937001F0A1FBFFF777
:10152000F7FD0346002B09D02D4B93F82D30002BEF
:1015300004D02C494FF4947001F092FB009BDB79AE
:101540000D2B03D8009BDB79002B04D125494FF4E8
:10155000967001F085FB009B1B7A0D2B04D9214965
:101560004FF4977001F07CFB1D4B1B7CDBB2002B12
:1015700003D011230393039B2DE09DF80730184AF5
:101580000C335B0013441B79002B07D1144B93F8E9
:101590002D300133DAB2124B83F82D209DF807303D
:1015A000009AD1790E4A0C335B0013440A461A7133
:1015B0009DF80730009A117A094A0C335B001344F6
:1015C0000A465A719DF8073000991846FFF7A8FDA2
:1015D00000230393039B184605B05DF804FB00BF8E
:1015E000642D00206495020000B585B001900B4683
:1015F000ADF802304C4B93F82C30002B04D14B4902
:101600004FF4E47001F02CFBBDF80230464A92F82A
:101610002D2093FBF2F102FB01F29B1A002B04D068
:10162000424940F2C91001F01BFB1220FFF730FDC8
:101630003D4B1B7CDBB2022B06D11220FFF71CFDB9
:1016400011230393039B6BE0374B1B7CDBB2012B15
:1016500035D1354BDB68002B06D00220FFF70CFD9F
:1016600011230393039B5BE02F4A019BD3602E4A17
:10167000BDF8023013832C4B93F82E3083F0010316
:10168000DBB2002B14D000BF4FF48070FFF7A7FC33
:10169000034683F00103DBB2002BF5D14FF48070D9
:1016A000FFF7B0FCBDF8023019460198FFF704FDC2
:1016B0000220FFF7E1FC00230393039B30E00220AC
:1016C000FFF7DAFC184B01221A74174A019B53608A
:1016D000154ABDF802301381134B0022DA60124B19
:1016E00093F82E30002B0BD00F4ABDF802305383F5
:1016F0000D4B93F82D3019460198FFF7DDFC0CE0F7
:10170000BDF8023019460198FFF7D6FC4FF48070FF
:10171000FFF778FC0020FFF753FC00230393039BA3
:10172000184605B05DF804FB642D002064950200A6
:1017300000B583B0124B93F82C30002B04D1114923
:1017400040F2132001F08CFA002301930C4B1B7C18
:10175000DBB2012B02D0082301930BE0084B93F876
:101760002E30002B03D00020FFF72AFC02E00420DB
:10177000FFF726FC019B184603B05DF804FB00BF91
:10178000642D00206495020082B003468DF8073076
:101790009DF90730002B0CDB9DF8073003F01F028A
:1017A00005499DF907305B09012000FA02F241F872
:1017B000232000BF02B0704700E100E082B0034682
:1017C00000918DF807309DF90730002B0ADB009B54
:1017D000DAB20C499DF907305201D2B20B4483F8BA
:1017E00000230BE0009BDAB207499DF8073003F0B5
:1017F0000F03043B5201D2B20B441A7600BF02B071
:10180000704700BF00E100E000ED00E082B0019011
:10181000019B1B0B5BB2184602B0704700B583B04A
:1018200003460A468DF8073013468DF806309DF8BA
:101830000630012B03D99DF80630032B0BD99DF8F8
:101840000630042B03D99DF80630072B03D908492D
:101850006B2001F005FA9DF806209DF9073011462E
:101860001846FFF7ABFF00BF03B05DF804FB00BFF5
:10187000DC95020000B583B003468DF807309DF972
:1018800007301846FFF780FF00BF03B05DF804FB88
:1018900082B001900B468DF803309DF80330019A19
:1018A000134401221A6000BF02B0704784B0019057
:1018B0000B46ADF80230BDF80230019A1344002205
:1018C0001A60BDF80230019A13441B680393039B0E
:1018D00000BF04B0704782B001900B46ADF80230F3
:1018E000BDF80230019A13441B68002B14BF01237A
:1018F0000023DBB2184602B0704782B0019000911D
:10190000019BD3F80022009B1A43019BC3F80022DD
:1019100000BF02B0704782B001900091019BD3F8E4
:101920000022009BDB431A40019BC3F8002200BF4A
:1019300002B0704782B001900091019B009AC3F8F9
:10194000042300BF02B0704782B001900091019B58
:10195000009AC3F8082300BF02B0704782B001901C
:101960000091019BD3F80423009B1340002B14BF6C
:1019700001230023DBB2184602B0704782B0019009
:101980000B468DF80330019BD3F8043523F0030296
:101990009DF8033003F003031A43019BC3F80425A9
:1019A00000BF02B0704782B001900B468DF8033043
:1019B000019BD3F8083523F003029DF8033003F0B0
:1019C00003031A43019BC3F8082500BF02B0704708
:1019D00082B001900B468DF80330019BD3F810358F
:1019E00023F00F029DF8033003F00F031A43019B0D
:1019F000C3F8102500BF02B0704784B003900B46B7
:101A000001928DF80B309DF80B20039B02F5A87214
:101A1000019943F8221000BF04B0704782B00190D2
:101A2000019B9B0003F5A0739BB2184602B0704760
:101A300082B001904FF48032019B02FA03F3184602
:101A400002B0704710B588B0039002910192039BD9
:101A50001B791A4613465B0013449B00744A1344D7
:101A60000793039B1B68734A934203D17249482032
:101A700001F0F6F8029B002B03D16F494A2001F0D8
:101A8000EFF8019B002B03D16B494B2001F0E8F8E4
:101A9000079B1B7A002B03D008230593059BC4E00A
:101AA000039B1B68634A93420FD1029B9B78012BD7
:101AB00064D0029B9B78002B60D0029B9B78022B0A
:101AC0005CD0029B9B78032B58D0039B1B685B4A1E
